:020000040000FA
:1000000040250020C10000001D160000C10C0000AA
:10001000FFFFFFFFFFFFFFFFFFFFFFFFFFFFFFFFF0
:10002000FFFFFFFFFFFFFFFFFFFFFFFF07210000B4
:10003000FFFFFFFFFFFFFFFF051C0000092200007C
:1000400003010000030100000301000003010000A0
:100050000301000003010000650A00000301000025
:1000600003010000FFFFFFFF030100000301000088
:10007000030100000301000003010000FFFFFFFF78
:10008000FFFFFFFFD1070000030100000301000094
:100090000301000003010000030100009D24000093
:1000A0003525000003010000492400000301000081
:1000B0000301000003010000030100000301000030
:1000C0001048804710488047104800471048016991
:1000D000002910D1416900290DD1816900290AD177
:1000E000C169002907D1BFF34F8F0A490A48C86088
:1000F000BFF34F8FFEE77047FEE7FEE7FEE7FEE740
:10010000FEE7FEE7CD0000003D2200001D010000DB
:100110000003084000ED00E00400FA0503488546AE
:1001200000F0F2FA00480047E949000040250020AD
:1001300030B50B46014600202022012409E00D467F
:10014000D5409D4205D31D469540491B2546954007
:1001500040191546521E002DF1DC30BD70B500244B
:100160002546002801DA01244042002901DA012550
:100170004942FFF7DDFFAC4200D04042002C00D0E6
:10018000494270BD03460B439B0703D009E008C9F1
:10019000121F08C0042AFAD203E00B780370401C37
:1001A000491C521EF9D27047D2B201E00270401CC5
:1001B000491EFBD270470022F6E710B513460A46E7
:1001C00004461946FFF7F0FF204610BD0321001D2D
:1001D000401E037812021A43491EF9D51046704793
:1001E000034603220870000A491C521EFAD518461D
:1001F00070470000F0B507460846584087B0C00F6A
:10020000049048000E46590040084908BC1A88412D
:1002100005D2384631461E4617460B460246580060
:10022000400810434CD0300D039040055900400D5C
:10023000490D0590401A0290402872DA18030121F6
:10024000000B09050843019004980092002805D08E
:100250000199524200208841009201900298402169
:100260000A1A0199009800F087F905460C466B467A
:1002700007CB00F0A2F9C0197141039A0E0D0023BB
:10028000D71756401A467A40164344D0049A002A9B
:100290002DD0029A012A039A15DC1205C01A914149
:1002A00001263605001C7141D20F059ED20700932E
:1002B000019202962A46234600F09FF907B0F0BD4E
:1002C00038463146FAE71605224A0F46B218C01AD8
:1002D000B74101210905001C4F4100187F4111461B
:1002E00018187941E20F10436D19644113E0E207D9
:1002F0006D0815436408C2071443039A01261205CA
:10030000C01A91413605001C7141CE0740083043A8
:100310004908C01851412A46234600F061F9CDE74B
:10032000FFE7049801224000C117121A00238B41F5
:1003300004983146C417381AA141EEE730B40124BD
:10034000E407634030BC55E730B40124E407614062
:1003500030BC4FE70000E0FFF0B51FB488B00B9948
:100360000998002448400999C00F4900490809919B
:10037000C0070B990090490049080B91099908980A
:10038000A64608431CD00B990A98084318D0099830
:1003900001244000420D4800410D09982405000346
:1003A000000B204309900B980003000B20430B9097
:1003B00050181C494018002201901446104605E0D0
:1003C000002001460DB0F0BD032801DA034600E02D
:1003D00003239C46C11A0AAE0AE05F0008ADED5B3C
:1003E0004F00F75B7D430027AA187C41491C5B1E28
:1003F0006145F2DD410004AB5A522104120C0A435C
:10040000240C401C0828DFDB0198029000997046FC
:1004100001910090059B049A0799069800F0EDF869
:10042000D0E700000DFCFFFFF0B50C465C4085B046
:10043000E40FE40703944C00002664085900944636
:10044000490802460296224321D062460A431ED042
:100450006200570D4A000E032303550D0124024686
:100460002C492405781B1B0B360B401823432643CD
:10047000614600901C46501AB44103D30098401CBA
:10048000009002E0921800985B41002803DA0020F7
:10049000014605B0F0BD002001210905074686464A
:1004A00011E064461D46141BB54106D36546521B38
:1004B000B341744607430C43A646CD07400849089C
:1004C000284392185B4105460D43EAD11046184374
:1004D00013D06046194650407140084306D060462C
:1004E000101AB34106D20122002306E000220123A4
:1004F000DB0702E00122D243531000987446010545
:10050000381C6141029C039D0019694100F068F8A4
:10051000BFE70000FD030000F0B51FB40646002051
:1005200082B005464024019100901BE001992246CB
:100530000F46304600F030F8049A059B801A994126
:1005400010D310461946224600F016F8361A8F418D
:100550000197224601200021009F00F00DF8381875
:100560004D4100902046641E0028DFDC019B00986E
:100570002946324607B0F0BD10B5202A04DB0146FB
:10058000203A9140002010BD914020239C1A034640
:10059000E3401943904010BD10B5202A04DB084603
:1005A000203AD040002110BD0B46D340D04020243B
:1005B000A21A91400843194610BD10B5202A06DB47
:1005C000CB170846203A1041C1170B4306E00B46F3
:1005D0001341D0402024A21A91400843194610BD6F
:1005E00010B5002B08DA0024401C614192185B41D1
:1005F0001A4301D14008400010BDF0B51FB482B0CD
:1006000005460C0003D0084602F05AF802E002F05A
:1006100057F820300246009021462846FFF7ACFFED
:10062000049B059A04460F4618431143084314D00F
:10063000184610431BD0009840210A1A1846059905
:10064000FFF7AAFF05460E46009A05990498FFF7A2
:1006500093FF084305D0012004E02046394607B047
:10066000F0BD0020C11705430E432C4337430099CA
:100670000E986305401A7905E40A00220C43FD0A2E
:100680000A3002D500200146E9E701051019694149
:100690000C9C0D9D00196941FFF7A2FFDFE70000E8
:1006A0004A0009030123090B1B0519430A4B10B526
:1006B000520D9A4202DA0020014610BD064B343337
:1006C0009A4203DC9A1AFFF767FF10BD034BD2185A
:1006D000FFF752FF10BD0000FF030000CDFBFFFF3E
:1006E00010B5002904DB0124E40740428C41214677
:1006F000002B04DB1C460123DB075242A341994235
:1007000000D1904210BD0000064C0125064E05E0C8
:10071000E36807CC2B430C3C98471034B442F7D322
:10072000FFF700FD605600008056000030B50A4615
:1007300000230021072803DD01230446083CE0B222
:100740009C00094D6419216885000F24AC400D46BA
:10075000A543294685001446AC4021439C00024D28
:100760006419216030BD000000200240F7B50B463F
:10077000009DED00154EAA1900200024002700213D
:1007800020E000240027FF258D401D40002D17D0BC
:1007900000200FE01D46C54001268E403540002D4B
:1007A00007D086000F25B5402C438600029DB5403A
:1007B0002F43401C0828EDD31568A5433D43156021
:1007C000121D08310829DCDDFEBD0000202002409A
:1007D00010B500240CE0A00008490858002805D0F6
:1007E000A0000858401EA100044A5050601CC4B22A
:1007F000082CF0DB024800F005F810BD880000204E
:10080000006007404168490849004160BFF34F8FCD
:100810007047002904D0026804231A43026003E0F1
:10082000026804239A4302607047002904D00268DA
:1008300001231A43026003E002685208520002607A
:100840007047C16070478160704700003EB500206E
:1008500000900190029001210904029888434018F9
:1008600002900123684607C800F0CAF81120012150
:100870008140124A116000BF0A2111480068FFF749
:1008800057FC054629460F48FFF7DBFF00210D48BE
:10089000FFF7D9FF01210B48FFF7C7FF01210948E6
:1008A000FFF7B7FF002405E00020A100064A5050E2
:1008B000601CC4B2082CF7DB3EBD000000E100E084
:1008C0000C000020006007408800002010B501F0F7
:1008D00057FD10BD70B504461F48406B4607760FA4
:1008E00000F03EF82060330001F001FF0816050813
:1008F0000B16160E12162068606010E01748606034
:100900000DE0164860600AE00120C003606006E068
:100910007D200002606002E00020606000BF00BF38
:100920000D48056A052D02D36068400901E0606842
:10093000E840A0600848806A072109040840050CC7
:10094000072D04D10321A068FFF7F2FB01E0A068A6
:10095000E840E06070BD00000080084000127A00AE
:10096000F0B517480068FF2701373840040A1448DB
:10097000C069C50F124840687F003840460A002E03
:1009800001D10020F0BD002C01D10E4800E00D483F
:100990000346012D01D11846F4E7094880690F2765
:1009A000FF053840C10D002900D11021044880699D
:1009B00003277F053840420D18464843D040E1E701
:1009C0000080084000127A007FB504466011800064
:1009D0000A49461800252E2C00D10225E406E40E13
:1009E0000321A14030680840E04045196846FFF700
:1009F00071FF0298E84004B070BD000038800840E4
:100A00003FB50E4C606AE16A226B0446009DAC4320
:100A100020460C46019DAC4321461446029DAC4342
:100A20002246002B05D0009C2043019C2143029CC0
:100A30002243024C6062E16222633FBD00800840B5
:100A400010B50446002001F071FB012001F06EFB9F
:100A50000348046000BF024800680028FBD110BDB5
:100A60003000002010B50021082000F0A1F8002877
:100A700037D01C480078022830DA1A48007800285D
:100A800013D11949002288680121C90200F012F926
:100A9000154901228868D10200F00CF9124901229F
:100AA0008868110300F006F913E00F4900228868F6
:100AB0000121090300F0FEF80B490022886801219A
:100AC000C90200F0F7F8084901228868D10200F055
:100AD000F1F804480078401C02490870082000F032
:100AE0005DF810BD2C0000200456000000B587B052
:100AF000002004900590069001900290039001213F
:100B000009040198884340180190491002988843CD
:100B10004018029040210398884340300390090216
:100B20000298884340180290012301A807C8FFF7E4
:100B300067FF012211020020FFF718FE0222D101F7
:100B4000144800F08FF80022FF210131114800F015
:100B50006BF8012211020F4800F070F80021082004
:100B6000FFF7E4FD08200490002168460175C1826A
:100B70000321017604A800F033F80121082000F0D9
:100B80003FF8062001218140034A116000BF07B0F1
:100B900000BD000000000B4000E100E00146012222
:100BA0008A401046014A50609060704740400240C1
:100BB00002460A48406801239340184000280BD0A1
:100BC00006488068D040C007C00F4840002801D0C8
:100BD000012070470020FCE70020FAE74040024077
:100BE0000279D207037A1B071A43C3881A431146B6
:100BF00002689200014BD218116070470040024019
:100C0000012907D1074A1268012383401A43054B83
:100C10001A6006E0034A1268012383409A43014B9D
:100C20001A60704740400240002A03D003680B431B
:100C3000036002E003688B4303607047002A03D01F
:100C400043680B43436002E043688B434360704753
:100C5000002A03D003690B43036102E003698B435D
:100C600003617047002A06D183680B438360C36821
:100C70008B43C3600EE0012A06D1C3680B43C360F7
:100C800083688B43836005E083688B438360C3681C
:100C90008B43C36070470246D3690B40002B01D0E1
:100CA000012000E0002070470146CA6990B27047F9
:100CB00041627047002A01D0416200E081627047C2
:100CC00000BFFEE730B589B00446FF2200210920AD
:100CD00000F034FCC5B2002D02D0284609B030BD6A
:100CE0000122102105A800F0EDFB002801D0012011
:100CF000F4E7FF2200210A2000F020FCC5B2002DFD
:100D000001D02846EAE70122102101A800F0DAFB11
:100D1000002801D00220E1E76846007DC02108409C
:100D2000801120706846007D3C2108408010607072
:100D30006846007D8007800FA0706846407DE070A7
:100D40006846807D20716846C07D60716846007E7F
:100D50000001E080E1886846407EF02210400011EA
:100D60000143E1806846407E0007000F207268461C
:100D7000807E80210840C01160726846807E4021DC
:100D800008408011A0726846807E202108404011F2
:100D9000E0726846807E1021084000112073002018
:100DA00060736846807E8007000D20612169684677
:100DB000C07E80000143216121696846007FC02216
:100DC00010408011014321616846007F38210840AE
:100DD000C01020756846007F4007400F6075684668
:100DE000407FE02108404011A0756846407F1C21EB
:100DF00008408010E0756846407F8007400F2076ED
:100E0000217E6846807F80221040C01101432176F8
:100E10006846807F7C210840801060766846807F2D
:100E20008007C00EA076A17E6846C07FE0221040F9
:100E300040110143A1766846C07FC006C00EE0762F
:100E400008A8007880210840C011207708A8007801
:100E5000602108404011607708A800781C210840F4
:100E60008010A07708A800788007000FE077E17F66
:100E700008A84078C022104080110143E17708A8FB
:100E800040782021084041112020015500212120D7
:100E9000015508A84078C107C90F2220015508A8AC
:100EA000807880210840C1112320015508A880784E
:100EB0004021084081112420015508A88078202174
:100EC000084041112520015508A8807810210840CC
:100ED00001112620015508A880780C2108408110B6
:100EE0002720015508A880788107890F28200155FF
:100EF00008A8C078FE210840411029200155012191
:100F00002A2001554E20005D042808D16846007F44
:100F10000002206121696846407F0818206120692D
:100F2000C004606401204002A064684601792C205E
:100F30000155684640790102E185E18D6846807976
:100F40000843E0856846C07901062163216B684645
:100F5000007A000408432063216B6846407A00024F
:100F600008432063216B6846807A08432063684603
:100F7000C17A342001556846017B35200155684609
:100F8000407B0106A163A16B6846807B0004084397
:100F9000A063A16B6846C07B00020843A063A16BFD
:100FA0006846007C0843A0633C20015D6846407CA5
:100FB000F0221040001101433C2001556846407C5E
:100FC0000007010DE187E18F6846807C0843E087D8
:100FD0006846C07CFE210840411040200155012197
:100FE00041200155002079E67CB500200090019059
:100FF000002401E0601C84B2FF2CFBDD002404E02F
:10100000FF2000F005FB601C84B20A2CF8DB0024F2
:101010000BE095220021084600F090FAC5B2012DA0
:1010200001D1002404E0601C84B278488442F0DBE3
:1010300000BF7648844201D101207CBD8722FF2178
:10104000AB31082000F0B2FAC5B2052D59D101210B
:101050006F48817301206F494862FF2000F0D8FA81
:10106000002415E000221146372000F067FAC5B2CF
:10107000012D01D02846E0E700221146292000F08A
:101080005DFAC5B2002D01D1002404E0601C84B2D9
:101090005E488442E6DB00BF5C48844219D10024EC
:1010A0000BE000221146012000F048FAC5B2002DE5
:1010B00001D1002404E0601C84B254488442F0DB77
:1010C00000BF5248844201D10220B6E700215048B7
:1010D0008173012000F0FEF8012200213B2000F086
:1010E0002DFAC5B2002D01D02846A6E7FF22012126
:1010F0004902102000F022FAC5B2002D7DD028460A
:101100009BE7012D79D1FF2000F082FAC1B2684639
:101110000170FF2000F07CFAC1B268464170FF20E8
:1011200000F076FAC1B268468170FF2000F070FAD4
:10113000C1B26846C170012036494862FF2000F004
:1011400067FA6846807801285ED16846C078AA2888
:101150005AD1002416E000221146372000F0EEF9A3
:10116000C5B2012D01D0284667E700220121890779
:10117000292000F0E3F9C5B2002D01D1002404E0DC
:10118000601C84B221488442E5DB00BF1F488442D2
:1011900001D1032051E7002211463A2000F006FA5F
:1011A000C5B2002D01D0284647E7FF2000F030FAF5
:1011B000C1B268460170FF2000F02AFAC1B2684649
:1011C0004170FF2000F024FAC1B268468170FF2010
:1011D00000F01EFAC1B26846C17001200D49486294
:1011E000FF2000F015FA68460078402108400028EA
:1011F00004D004210648817303E005E0022104487D
:101200008173012000F066F8002016E7FF0F000050
:10121000001E002000600B40F7B505460E461A4838
:10122000807B042800D06D0200222946122000F0A5
:1012300085F9C7B2002F01D00120FEBD002413E0C4
:101240006102881900220121490200F03BF90028BF
:1012500009D0002211460C2000F070F901200B4942
:1012600048620220E9E7641C02988442E8D3002225
:1012700011460C2000F062F9012004494862FF2069
:1012800000F0C6F90020D8E7001E002000600B40E7
:1012900070B504460E460E48807B042800D06402D8
:1012A00000222146112000F049F9C5B2002D01D0DD
:1012B000012070BD01225102304600F003F9C5B291
:1012C000002211460C2000F039F92846F1E7000011
:1012D000001E002010B50446204600F07FFE10BD21
:1012E00010B500F033FE10BDFEB505460E4617469C
:1012F0004248807B042800D06D024048807B002853
:1013000004D000223946172000F018F9002229469F
:10131000192000F013F9C4B2002C01D00120FEBD49
:10132000012037498862FF2000F072F90020019007
:101330003CE0FC2000F06CF90020029007E03078DF
:10134000761C00F065F90298401C80B202900121E1
:10135000490202988842F2DBFF2000F059F9FF2091
:1013600000F056F9FF2000F053F9C4B2E006C00EB9
:10137000052804D00120224948620220CFE700203E
:1013800000900BE00098411C0091012189048842E3
:1013900004D101201A4948620320C0E7FF2000F071
:1013A00037F9FF28EED10198401C01900198B8420E
:1013B000BFD3FD2000F02CF9C4B2002C01D10420D1
:1013C000ADE7002000900BE00098411C0091012146
:1013D0008904884204D101200949486205209EE71A
:1013E000FF2000F015F9FF28EED1012004494862E2
:1013F000FF2000F00DF9002091E70000001E002002
:1014000000600B40F8B504460D462C48807B04284C
:1014100000D0640200222146182000F08FF8C6B2E6
:10142000002E01D00120F8BD012025498862FF204F
:1014300000F0EEF8FF2000F0EBF8FF2000F0E8F8F5
:10144000FE2000F0E5F8002705E028786D1C00F08C
:10145000DFF8781C87B2012040028742F5DBFF20CD
:1014600000F0D6F8FF2000F0D3F8FF2000F0D0F80D
:10147000C6B2F006C00E052804D00120104948620B
:101480000220D0E7002000900BE00098411C009162
:1014900001218904884204D10120094948620320BE
:1014A000C1E7FF2000F0B4F80028EED00120044985
:1014B0004862FF2000F0ACF80020B4E7001E0020D6
:1014C00000600B40F7B505460E4601201A498862B8
:1014D000002409E0FF2000F09BF8C7B2FE2F01D1E5
:1014E000002405E0601C84B27D2000018442F1DB11
:1014F00000BF7D200001844203D101200E494862D3
:10150000FEBD002405E0FF2000F082F82855601C95
:1015100084B2B442F7DBFF2000F07AF8FF2000F03D
:1015200077F80298002805D0012003494862FF207F
:1015300000F06EF80020E3E700600B40F7B50646C8
:101540000C46FF2000F064F8012017498862402112
:101550003143084600F05CF8200E00F059F82102F3
:10156000080E00F055F82104080E00F051F8E0B222
:1015700000F04EF8029800F04BF8002708E0FF203A
:1015800000F046F8C5B2FF2D00D003E0781CC7B2CA
:10159000C82FF4DB00BF012003494862FF2000F0A0
:1015A00037F82846FEBD000000600B40F7B5064640
:1015B0000C46FF2000F02CF80120144988624021DD
:1015C0003143084600F024F8200E00F021F82102F3
:1015D000080E00F01DF82104080E00F019F8E0B222
:1015E00000F016F8029800F013F8002708E0FF203A
:1015F00000F00EF8C5B2FF2D00D003E0781CC7B292
:10160000C82FF4DB00BF2846FEBD000000600B4081
:1016100010B50446204600F00BFD10BD704770B5B4
:101620000646301D030001F062F8091E1B18151252
:101630000F0C090621004824062517E0382406254A
:1016400014E02824062511E0182406250EE00824BD
:1016500006250BE008240E2508E018240E2505E0D9
:1016600028240E2502E038240E2500BF00BF2146A5
:101670009B2000F049FC2946AB2000F045FC70BDE2
:1016800010B504460320C04384420DDB042C0BDC60
:10169000201D0007010EA72000F036FC201D0007CA
:1016A000010EA82000F030FC10BD10B50446032048
:1016B000C04384420ADB042C08DC0420001B8000A9
:1016C0003022101AC1B29C2000F01EFC10BD000098
:1016D0003EB50025002400200090019002900121D9
:1016E00009040098884340180090490000988843F6
:1016F0004018009049000098884340180090091154
:1017000001988843401801900123684607C8FFF7F5
:1017100077F90022FF2101311046FFF727F86449CD
:1017200000220868FF210131FFF77EFA604901229B
:1017300008681102FFF782FA5D4900220868FF215C
:101740000131FFF78FFA00220121C9020220FFF7C1
:101750000DF8574901228868D102FFF765FA54490C
:10176000002288680121C902FFF772FA00220121D4
:1017700009030220FEF7FAFF4D4901228868110390
:10178000FFF752FA4A490022886801210903FFF74E
:101790005FFA0022012189031046FEF7E7FF444962
:1017A000012208689103FFF73FFA414900220868C7
:1017B00001218903FFF74CFA00220121C9031046D9
:1017C000FEF7D4FF3A4901220868D103FFF72CFA4B
:1017D0003749002208680121C903FFF739FA0022BE
:1017E000012189020220FEF7C1FF314901228868E8
:1017F0009102FFF719FA2E49002288680121890217
:10180000FFF726FA0022FF211046FEF7AFFF284916
:1018100000220868FF21FFF707FA2549012208681E
:10182000FF21FFF70BFA224900220868FF21FFF78A
:1018300019FA00F0E9F98021122000F065FB002878
:1018400001D001203EBD1B48FFF7FAF81C2000F034
:101850009BFA1C2000F098FA044624021D2000F098
:1018600093FA1D2000F090FA04431348844201D0FB
:101870000120E7E70A2000F087FA044624020B2043
:1018800000F082FA04430D48844201D00220D9E7D7
:10189000002509E06A000A4BD21851786A00985C6A
:1018A00000F032FB681C85B2412DF3D30020C9E75C
:1018B0000456000028230000A27F000021770000CA
:1018C0008255000010B50446230000F010FF060406
:1018D000152E47607982FF21132000F015FB65214A
:1018E0000E2000F011FB00212D2000F00DFB002147
:1018F0002E2000F009FB6CE0FD21132000F004FB1A
:101900005A21012000F000FB5C21022000F0FCFACB
:1019100065210E2000F0F8FA00212D2000F0F4FAE5
:1019200000212E2000F0F0FA53E0FD21132000F0FA
:10193000EBFA5821012000F0E7FA6021022000F0C4
:10194000E3FA65210E2000F0DFFA00212D2000F0DF
:10195000DBFA00212E2000F0D7FA3AE0FD21132017
:1019600000F0D2FA8421012000F0CEFA4C210220AE
:1019700000F0CAFA65210E2000F0C6FA00212D20E1
:1019800000F0C2FA00212E2000F0BEFA21E0FD2175
:10199000132000F0B9FA9621012000F0B5FA402199
:1019A000022000F0B1FA65210E2000F0ADFA00210E
:1019B0002D2000F0A9FA00212E2000F0A5FA08E061
:1019C000FF21132000F0A0FAE5210E2000F09CFA80
:1019D00000BF00BF10BD10B50446230000F087FE15
:1019E0000705121724313E4B58000621A62000F0AF
:1019F0008BFA8021602000F087FA8021612000F0BE
:101A000083FA45E04621A62000F07EFA40E0262138
:101A1000A62000F079FA8021602000F075FA80217C
:101A2000612000F071FA33E01E21A62000F06CFA6C
:101A30008021602000F068FAC021612000F064FA83
:101A400026E01E21A62000F05FFA6021084600F083
:101A50005BFA6021612000F057FA19E01E21A620F0
:101A600000F052FAA021602000F04EFA40216120DF
:101A700000F04AFA0CE01E21A62000F045FA4021B1
:101A8000602000F041FAA021612000F03DFA00BF83
:101A900000BF10BDF7B582B004460D46049800287B
:101AA0002FD00521C901081BC10F0918C9030F0C4C
:101AB000FF21E131481BC10F0918C903090C00912E
:101AC0000621122000F020FA2321172000F01CFA32
:101AD000A021182000F018FA0721192000F014FAAC
:101AE000F0211A2000F010FA0021322000F00CFA48
:101AF000A021292000F008FAF0212C2000F004FA9F
:101B00002DE0FF214131081BC10F0918C9030F0C3B
:101B1000F021481BC10F0918C903090C0091462187
:101B2000122000F0F1F93F21172000F0EDF95021CB
:101B3000182000F0E9F90321192000F0E5F97821D7
:101B40001A2000F0E1F90021322000F0DDF95021E7
:101B5000292000F0D9F978212C2000F0D5F91720A0
:101B600000F012F90646B8108019C0B20190172093
:101B7000019900F0C9F9A005010E182000F0C4F980
:101B8000192000F001F90646009840108019C0B2F3
:101B900001901920019900F0B7F9E805010E1A200B
:101BA00000F0B2F9322000F0EFF806460098C007C6
:101BB000400EB907890E0843E907490F0843A107FA
:101BC000890F0843304301903220019900F09CF9BD
:101BD000A005010E292000F097F9E805010E2C2040
:101BE00000F092F92A2000F0CFF8A007800F3043D0
:101BF000E907490F084301902A20019900F084F970
:101C000005B0F0BD704700000EB5002000900190B7
:101C1000029001218904009888434018009009111E
:101C20000198884340180190402102988843403031
:101C300002900123684607C8FEF7E2FE0022012158
:101C400089030220FEF792FD1A4901228868910358
:101C5000FEF7EAFF17490022886801218903FEF791
:101C6000F7FF00220121C9030220FEF77FFD114981
:101C7000002288680121C903FEF7D6FF0D49002222
:101C800088680121C903FEF7EDFF0A49012288682F
:101C9000D103FEF7D3FF074901228868D103FEF77D
:101CA000C3FF0449002288680121C903FEF7D0FF61
:101CB0000EBD00000456000010B50620FEF7C0FE61
:101CC0000120C0030A494862401048620620FEF71E
:101CD000B7FE01208003064988620620FEF7B0FEA9
:101CE0000120C003024988620620FEF7A9FE10BD4C
:101CF00000400B4070B50024214900228868012172
:101D0000C903FEF791FF1E49002288680121C9031B
:101D1000FEF7A8FF1A4901228868D103FEF78EFF5B
:101D200008251BE00620FEF78BFE012080031549E5
:101D300048626006040E124988680121C903FEF753
:101D4000AAFF002801D0601CC4B20620FEF778FE6E
:101D5000012080030B498862681EC5B2002DE1DCBA
:101D6000074901228868D103FEF75EFF044900227B
:101D700088680121C903FEF76BFF204670BD000093
:101D80000456000000400B4070B50446002500F0EA
:101D900023F8422000F052F80C20FEF751FE2046B6
:101DA00000F04CF80C20FEF74BFE00F02DF80C2054
:101DB000FEF746FE00F010F8432000F03FF80C203C
:101DC000FEF73EFEFFF796FF0546FFF775FF00F0B2
:101DD0001BF8284670BD000010B50120C00309495A
:101DE0004862401048620620FEF72AFE0120C00328
:101DF000044988620620FEF723FE01208003014982
:101E0000886210BD00400B4010B50120C0030A4994
:101E100088620620FEF714FE01208003064948620E
:101E20000620FEF70DFE0120C0030349486206208C
:101E3000FEF706FE10BD000000400B4070B50446E2
:101E400000261EE080202040002804D00120C0038E
:101E50002B49486203E00120C003294988626006DB
:101E6000040E0620FEF7ECFD0120800324494862A1
:101E70000620FEF7E5FD0120800321498862701CE1
:101E8000C6B2082EDEDB1F49002288680121C90383
:101E9000FEF7CAFE1B49002288680121C903FEF72C
:101EA000E1FE184901228868D103FEF7C7FE06202B
:101EB000FEF7C6FD01208003114948620620FEF7A7
:101EC000BFFD104988680121C903FEF7E4FE002820
:101ED00001D0012500E00025012080030849886227
:101EE000084901228868D103FEF79EFE05490022B9
:101EF00088680121C903FEF7ABFE284670BD0000CB
:101F000000400B400456000070B505460C46002604
:101F1000FFF762FF4220FFF791FF002800D0012663
:101F20000C20FEF78DFD2846FFF788FF002800D023
:101F300001260C20FEF784FD2046FFF77FFF0028D6
:101F400000D00126FFF760FF304670BD0EB50020BF
:101F50000090019002900121C90400988843401824
:101F60000090202101988843203001904902019877
:101F70008843401801900123684607C8FEF740FDDA
:101F80001349C8680121FEF793FE11490122C86870
:101F90001146FEF749FE052220210220FEF7E6FB4E
:101FA0000522012149020220FEF7E0FB0522FF2164
:101FB00001310220FEF7DAFB0120064948620020C9
:101FC000FFF788F90121044800F04CF80EBD00002D
:101FD0000456000000600B400040044010B58CB077
:101FE0000446012080030190002002900820039005
:101FF00000200490059008900120800206900120A6
:102000000790002009900A90002C02D110200B901C
:1020100001E002200B9001A9044800F03CF80121E6
:10202000024800F062F80CB010BD0000004004400F
:1020300010B5044600BF0121094800F01FF8002830
:10204000F9D02146064800F05CF800BF042104489E
:1020500000F014F80028F9D0014800F042F810BD53
:1020600000400440002904D0026801231A430260A2
:1020700003E00268520852000260704710B5024641
:102080000020002353691C460C40002C01D0012085
:1020900000E0002010BD10B54A69002A05D10C7E71
:1020A000FF230133A3401A4304E00C7E01235B02AB
:1020B00023411A438C680B682343CC6823430C6983
:1020C0002343CC692343134343604C6A4B68234347
:1020D0000C6A2401234383618B6A5B085B1EC36027
:1020E00010BD0146086980B27047002904D002681B
:1020F00008231A43026003E0026808239A4302603F
:102100007047016170477047042806D10649096984
:1021100004221143044A116105E0034909690422BC
:102120009143014A1161704700E000E0002803D1AB
:102130000021094A91610EE0012806D1064909698A
:1021400001221143044A116105E003490969490864
:102150004900014A1161704700E000E0002806D004
:102160000649096902221143044A116105E0034945
:10217000096902229143014A1161704700E000E0C1
:10218000014948617047000000E000E010B5E1201F
:10219000400200F0DDF9FEF759FB00F039F8FFF7D7
:1021A00097FA00281AD1FFF78DFB0020FFF768FA95
:1021B0000020FFF734FA0020FFF777FA0020FFF73E
:1021C0000AFC0022F021FF204130FFF763FC0B499D
:1021D0000022886801218902FEF76CFD002002F0D0
:1021E000ABFCFFF77DF80649002002F00BF801F088
:1021F000BBFF04490870FEF779FC10BD04560000CF
:10220000500600200800002010B500F011F910BDA4
:1022100010B50420C043FFF777FF06490968C808D6
:102220000549FDF785FF0446FFF7AAFF0120FFF7E8
:1022300095FF10BD0C000020A086010010204B4926
:10224000C86001204A4908604A48006B40210843A1
:102250004849086300BF484880682728FBD14548A3
:10226000406A03218902884342494862084640681F
:102270000121C90208433F49486000BF3D488068CA
:102280000007C00F0028F9D03A484068C008C000D5
:10229000C01C3849486000BF3648406B4007400FBB
:1022A0000328F9D135480068C008C000401C3349F4
:1022B000086000202F490862084640684915884395
:1022C0002C49486008460068891508432949086078
:1022D00008464068091508432649486000BF25485C
:1022E00080684007C00F0028F9D02248006B4021C9
:1022F00088432049086308460068891588431D49BA
:1023000008600320000688610846406849150843B4
:102310001849486000BF174880688007C00F002830
:10232000F9D016480068C008C000801C1349086036
:1023300000201049086208464068C008C000401CE0
:10234000486000BF0B48406B4007400F0128F9D19F
:102350000A480068102108430849086008460068D8
:1023600001210903084305490860704700810840BE
:10237000008308400080084000A106400002084099
:102380001CB52748C069002800D01CBD1420244972
:10239000C8612448007802283FD1234900220868F8
:1023A0000121C903FEF786FC1F49002208680121AC
:1023B0008903FEF77FFC1C49012208689103FEF7A0
:1023C00079FC19490022086801218903FEF772FC93
:1023D000154901220868D103FEF76CFC124901225D
:1023E00008689103FEF766FC1E21002002F052FCF3
:1023F0000E4908600846006800F026FF0020F02122
:10240000FF234133024600910190014607480068CE
:1024100000F0D8FD00200349087000BFB5E70000B8
:10242000880000202C00002004560000040000203A
:1024300004480068002804D002480068401E014992
:10244000086070473000002010B520210F4800F0D0
:10245000BFF8002819D020210C4800F0B5F80B482F
:1024600000F006F90A4908700846007809490A4A46
:102470001278885408480078401C074908700846BC
:102480000078642801DB0020087010BD00100440B3
:1024900003000020982000205400002010B52021C7
:1024A000480600F095F8002837D02021480600F0B3
:1024B0008BF80120800700F0DBF819490870084606
:1024C0000078242802D100201649087014480178A9
:1024D000144802780078401C124B1870124881543E
:1024E0000F4800780A2817D10F4800794C280CD1E2
:1024F0000E480078002808D1184602780A490C488E
:10250000FDF740FE01200949087064210648FDF7E7
:1025100052FE00200349087010BD00BFFCE7000018
:102520000100002000000020EA050020802000209B
:102530001820002010B52021044800F049F8002898
:1025400003D02021014800F03FF810BD00000440F6
:1025500010B586B004460020009001900290012141
:1025600089030198884340180190491101988843D4
:10257000401801900123684607C8FEF741FA062279
:1025800010210020FEF7F2F8062220210020FEF79D
:10259000EDF80394FF210131684601820021418258
:1025A0008182C18203A9074800F01CF801220021A2
:1025B000044800F061F801221146024800F05CF87E
:1025C00006B010BD0000044002690A400261704775
:1025D000024610690840002801D001207047002001
:1025E000FCE7000070B504460D4660681C490840D1
:1025F000E9880843A9880843298908436989084369
:10260000606001208007844207D11820FEF7DCF9C2
:1026100006462968FDF78CFD60621248844207D1A6
:102620001A20FEF7D1F906462968FDF781FD6062A0
:102630000D48844207D11C20FEF7C6F906462968DA
:10264000FDF776FD60620948844207D11E20FEF73F
:10265000BBF906462968FDF76BFD606270BD00009E
:10266000FCE0FFFF000004400010004000100440A8
:102670000146086880B2704710B5002A05D043684B
:1026800010248C402343436004E0436810248C40B2
:10269000A343436010BD00000FB410B504A9074B5D
:1026A00002AA039800F0ECF8044602A9002000F00A
:1026B00083FC204610BC08BC04B01847B92F0000AA
:1026C0002021020C01D010211046020A01D0104630
:1026D0000839020901D01046091F820801D01046AE
:1026E000891E420801D0881E7047081A704730B40E
:1026F0007446641E2578641CAB4204D3635D5B00A2
:10270000E31830BC18471D46F8E702E008C8121F5E
:1027100008C1002AFAD170477047002001E001C1CA
:10272000121F002AFBD17047F0B51FB484B0079880
:102730000699020D014314D04A484B4910184843EA
:1027400005140F9801280E981CD0281A401C00244C
:10275000464E4749009401910290002814DA4742FE
:1027600027E00F98012443A3012808D000210498F2
:102770000F9A84600360C260416009B0F0BD0E989A
:10278000C143F4E74042E2E7074612E0F80707D00A
:102790002246334601990098FDF7DEFD0191009035
:1027A0002246334610461946FDF7D6FD04460E462E
:1027B0007F10002FEAD10298019B0028009A079908
:1027C000069802DAFDF7C8FD01E0FDF72DFE04468C
:1027D0000E460022284BFDF783FF03D80020C0439C
:1027E000014607E00022254B20463146FDF702FD59
:1027F000FDF756FF102409E0002C0ADB0A22002313
:10280000FDF78AFE059B30321A55641E02460A43C4
:10281000F2D11122641C059B121B1C190F9B012B6A
:1028200003D0012308430ED10AE0084304D011204D
:102830000E9000200F9084E70E98151A6D1E0BE085
:102840000E98824202DD00236D1C03E0824201DA11
:1028500000236D1E002BEED004980F998260C1609A
:1028600030C08AE701FCFFFF104D0000000024404B
:102870000000F03F300000000000F0430000E03FA7
:10288000FFB597B00646002518E2252877D1002429
:102890002746FD49049400E00443761C3278012069
:1028A000203A90400842F7D130782A280ED00222F0
:1028B000307801463039092916D804990A2359433A
:1028C000303940181443761C0490F1E7189802C878
:1028D00004911890002904DA01204003044348427F
:1028E000049002200443761C30782E2814D1042052
:1028F00004437078761C2A2809D11898761C80C861
:10290000189009E00A214F43303FC719761C3078F0
:10291000014630390929F5D930786C2810D006DC09
:102920004C281AD068280ED06A2817D104E07428E1
:1029300013D07A2812D110E00120400504430CE0A6
:102940000121090501E0032109050C437178814249
:1029500003D1012000052418761C761C30781190D4
:1029600066280BD013DC58287DD009DC00287BD0EA
:102970004528F6D04628F4D047281AD1A5E118E01A
:10298000632835D0642870D0652812D19DE1702865
:102990006CD008DC6728F1D069287BD06E280DD078
:1029A0006F2806D1BAE073282ED0752871D0782808
:1029B00059D01A9A199990476D1C7EE16002400F18
:1029C000022809D003280DD00428189801680DD0DA
:1029D0000D60001D189070E11898EA1701680D60ED
:1029E0004A60F6E7189801680D80F2E70D70F0E78D
:1029F00018986A4601781172001D189000205072D4
:102A000002A80090012005E0189802C81890002044
:102A10000091C04361070DD5002101E00199491CD7
:102A20000191B94212DA8142F8DB009A515C002927
:102A3000F4D10BE0002101E00199491C0191814290
:102A4000FADB019A0099895C0029F5D10199049873
:102A50001A9B471A21463846199A00F097FA0199AD
:102A6000401945180BE04FE02CE113E04EE00098D0
:102A700000990078491C00911A9A19999047019879
:102A8000401E0190401CF2D1214638461A9B199AEB
:102A900010E137E00A200021009001916002410F0F
:102AA000022907D0189A01CA1892C217944603291E
:102AB00008D00AE01898C01DC108C90005C91891BE
:102AC000944607E000B2C2179446042902D140B2EE
:102AD000C1178C4600226146944506DA0A46002159
:102AE000404291418C462D2102E0210504D52B2145
:102AF0006A461173012103E0E10701D02021F7E7C5
:102B0000029155E00A200AE0102008E01020009011
:102B10000021042004430191082703E0082000213C
:102B2000019100906002410F022907D0189A01CA52
:102B3000189200229446032908D008E01898C01D76
:102B4000C108C90005C91891944603E080B2042960
:102B500000D1C0B200210291210729D51199702915
:102B600006D0009A1021019B4A401A4305D00EE07E
:102B700040216A461173012108E06146014306D0F5
:102B800030216A4611731199517302210291009A02
:102B90000821019B4A401A430AD16146014301D1F1
:102BA000610705D530216A46117301217F1E02910C
:102BB0001199582904D035A10E910DA90D910DE060
:102BC00037A1F9E76146019B009AFDF7A5FC0E9B32
:102BD0008C469B5C0D9A521E0D9213706146014308
:102BE000F0D10D9805A9081A20300190600703D58F
:102BF00001200004844300E001270198874201DDA1
:102C0000381A00E000200199009041180298091834
:102C10000498401A0490E00306D421461A9B199A9E
:102C2000049800F0B3F94519002706E003A81A9AA2
:102C3000C05D199990476D1C7F1C02988742F5DB97
:102C4000E0030CD521461A9B199A049800F09EF9CE
:102C5000451904E01A9A3020199990476D1C009983
:102C6000481E00900029F5DC08E00D980D990078C9
:102C7000491C0D911A9A199990476D1C0199481E8B
:102C800001900029F1DC63E1092801003031323381
:102C90003435363738396162636465660000000098
:102CA0003031323334353637383941424344454682
:102CB0000000000000F05AF94519761C3078002811
:102CC00000D0E2E528461BB0F0BD600700D406271F
:102CD0001898C01DC108C90048680A680831C30FA8
:102CE000DB071891190001D09CA108E0210501D54E
:102CF0009BA104E0E10701D09AA100E09AA1430062
:102D000011985B08109165280CD006DC452809D085
:102D100046281DD0472841D141E0662818D06728B1
:102D20003CD13CE00021112F01DB112000E0781C98
:102D30000191009008A911A8FFF7F6FC13990591DD
:102D40000021119A15927F1C12980197009150E072
:102D50000120C00703900120019008A9009711A845
:102D6000FFF7E2FC139A149905920022119B00923E
:102D700012981593059A0192002901D0104602E09D
:102D8000791C40180190381A01D5019804E040429E
:102D9000401E0090781C0190C01B029043E0012F60
:102DA00000DA01270021112F01DD112000E0384653
:102DB0000191009008A911A8FFF7B6FC139905919D
:102DC000119A0021129815920091019721070CD4B5
:102DD0000599B94201DB019900E00191012904DD67
:102DE000159A491E515C302906D0B84201DA011DFE
:102DF00005DA0121029115E00199491EEDE700284D
:102E000005DC0099411800910199091A03E0019A23
:102E1000411C914200DD01910099401A401C029032
:102E20000120C0070390200706D40299019881422F
:102E300002DB0020C043029000206946C87707AF3C
:102E4000012103980337C907884224D0022011903A
:102E50002B201290039800280CDA404203902D207A
:102E6000129007E00A210398FDF762F930317F1EC6
:102E7000039039701199481E11900029F2DC0398D3
:102E80000028EFD1791E1298087030782021084070
:102E90004530BF1E387006A8C01BC01D0390109897
:102EA0000078002800D00120019941180298C0172D
:102EB0000918039809180498401A401E0490E0036A
:102EC00006D421461A9B199A049800F05FF8451918
:102ED00010980078002803D01A9A199990476D1C11
:102EE000E00324D521461A9B199A049800F04EF865
:102EF00045191CE00098002807DB009905988842D6
:102F000003DD1598405C199901E0199930201A9A4F
:102F1000904700986D1C401C00900298401E029043
:102F2000002804D11A9A2E20199990476D1C0199F6
:102F3000481E01900029DDDC05E038781A9A7F1CD4
:102F4000199990476D1C0399481E03900029F4DCE1
:102F500021461A9B199A0498ACE600002D00000047
:102F60002B0000002000000000000000F8B504461F
:102F700000251E461746880404D405E03946202063
:102F8000B0476D1C641EF9D52846F8BDFFB5044650
:102F9000002581B01E46C80301D5302700E0202758
:102FA000880404D505E038460399B0476D1C641EBB
:102FB000F9D5284605B0F0BD0A68531C0B601070A7
:102FC00070470000FFB599B0002005901C980028BC
:102FD00002D02298002802D129201DB0F0BDFF2187
:102FE00041311C98884201DD2920F6E72298F0281B
:102FF00001DD2920F1E70120800201F069FE04468D
:10300000002C01D11120E8E78920800001F060FE4A
:1030100018901898002804D1204601F060FE112075
:10302000DBE7422017904222002106A801F046FE6D
:1030300009A902312820FDF7D3F80AA902311C980A
:10304000FDF7CEF80BA902312298FDF7C9F801214E
:1030500006A84183102181830DA902310320FDF7C9
:10306000BFF80BA80230FDF7B1F807460AA80230F6
:10307000FDF7ACF8474306A8808B4743F9174A0F82
:10308000D119C8100EA902310197FDF7A9F86B48B4
:10309000694608830EA80230FDF798F80146179894
:1030A0000F1806A902313846FDF79AF808A902312F
:1030B0001798FDF795F813A902311F20C002FDF7FC
:1030C0008FF814A902313F204001FDF789F815A9B6
:1030D00002311F20FDF784F82398012805D103222F
:1030E0001999189801F0A6F805902398002802D0A5
:1030F0000598042805D106221999189801F09AF824
:1031000005900AA80230FDF761F84700F817800F14
:10311000C01980108000381A0CD00AA80230FDF7C0
:1031200055F84700F817800FC0198010401C800424
:10313000050C05E00AA80230FDF748F84004050C2C
:103140000598002871D13E4B06A9179A189801F0EE
:103150009DF905902298401E80B203905CE0002605
:10316000002004903EE037490022086801218903CD
:10317000FDF7A0FD33490868FDF796FDC0B2029047
:103180003049012208689103FDF794FD029800027E
:1031900002902C490022086801218903FDF78AFD6D
:1031A00028490868FDF780FDC0B2029908430290E3
:1031B0002449012208689103FDF77CFD0AA802302A
:1031C000FDF704F8B04203DD71000298605203E09D
:1031D0000020C04371006052701C86B20498401CED
:1031E00080B20490E90F49194910B142BBD10BA834
:1031F0000230FCF7EBFF471E0BA902313846FCF703
:10320000EFFF0F4B2A462146189801F03FF9059031
:103210000398401E80B203900BA80230FCF7D6FF43
:1032200000289CD1189800F0E1FF204601F057FDDE
:10323000189801F054FD0598CFE60000424D0000BB
:103240004C0000200456000070B50646002510E032
:103250002A460AA13046FFF71FFA012231460C48E0
:10326000006800F0E7FF0446042C00D104E0681C6D
:1032700085B208488542EBDB00BF70BD303A50484C
:103280004F544F2F504943253035642E626D7000E6
:1032900044000020FFFF000070B504460D46607832
:1032A00001232A462146303100F0F2FE002801D0E9
:1032B000032070BD20463030FF30FF3040780102DF
:1032C00020463030FF30E130807F01431848814292
:1032D00001D00220EDE76920005D01066820005D55
:1032E000000408436721095D090208436621095D5E
:1032F00008430002000A0F49884201D10020D8E7A4
:103300008520005D01068420005D000408438321C0
:10331000095D090208438221095D08430002000A91
:103320000449884201D10020C3E70120C1E7000021
:1033300055AA000046415400024600E0521C107895
:10334000002802D010788842F8D110787047000029
:10335000F7B58CB00C98006801900198007830386F
:103360000A900A9809280AD8019840783A2806D184
:103370000198801C01900C990198086001E00020E0
:103380000A900A98002802D00B200FB0F0BD0A98CE
:103390008000F3490C580D980460002C01D10C20DA
:1033A000F3E72078002814D0607800F09FFE0990A1
:1033B0000998C007C00F00280BD10E98002806D02E
:1033C000042109980840002801D00A20DDE70020E8
:1033D000DBE7002020700A986070607800F0EBFD59
:1033E00009900998C007C00F002801D00320CCE73E
:1033F0000E98002806D0042109980840002801D022
:103400000A20C2E70020014608902046FFF744FF4B
:10341000054600BF012D22D100200B900B980028FB
:1034200003D00B98401EC0B20B900B980001FF30E8
:10343000BF30214630314718387900280FD0F87A4C
:103440000006B97A09040843797A09020843397AEF
:103450000843089020460899FFF71EFF0546032DF4
:1034600001D1012091E7002D01D00D208DE73C20F6
:10347000005D00023B21095D0843012149028842A9
:1034800001D00D2081E74720005D00024621095D43
:1034900008430790079800280ED15720005D0106C9
:1034A0005620005D000408435521095D09020843C8
:1034B0005421095D084307900798E0614020065DAC
:1034C000E670012E03D0022E01D00D205DE7079893
:1034D000704307903D20005D0646A070002E03D08B
:1034E000701E3040002801D00D204EE74220005DC4
:1034F00000024121095D08432081207A0007000F66
:10350000002801D00D2040E74420005D0002432147
:10351000095D08430690069800280ED15320005DEF
:1035200001065220005D000408435121095D090293
:1035300008435021095D084306903F20005D0002CA
:103540003E21095D084302900298002801D10D2018
:103550001BE707990298401821890909401805902E
:1035600006990598814201D20D200EE7A178059BAE
:10357000069AD01AFCF7DCFD04900498002801D1CB
:103580000D2002E7012577490498884200D30225DF
:1035900075490498884200D303250498801CA061D3
:1035A000059908984018A06202990898401820626E
:1035B000032D17D12089002801D00D20E5E65F20DA
:1035C000005D01065E20005D000408435D21095D89
:1035D000090208435C21095D08436062A06980001C
:1035E000039016E02089002801D10D20CDE6216A44
:1035F000079808186062022D02D1A069400007E018
:10360000A069410040184008217EC907C90F401831
:103610000390E1690398FF30FF300130400A814296
:1036200001D20D20B1E60020C04320610020E060FF
:10363000032D7DD160716120005D01026020005D7D
:103640000143089808186061607862690123214687
:103650003031009000F01CFD002874D1204630303D
:10366000FF30FF304078010220463030FF30E1303B
:10367000807F01433D48814265D13320005D0006D3
:103680003221095D090408433121095D090208431B
:103690003021095D08433649884254D120463030F4
:1036A000FF30E530C078010620463030FF30E5308D
:1036B00080780004084321463031FF31E5314978F4
:1036C0000902084321463031FF31E13109790843CD
:1036D0002849884237D120463030FF30ED30C0785D
:1036E000010620463030FF30ED308078000408437A
:1036F00021463031FF31ED31497809020843214636
:103700003031FF31E131097B0843E0602046303041
:10371000FF30E930C078010620463030FF30E93014
:1037200080780004084321463031FF31E93100E060
:1037300009E049780902084321463031FF31E1317F
:10374000097A0843206125700B480088401C80B22C
:1037500009490880E0800020E062207100BF14E683
:1037600034000020F60F0000F6FF000055AA00000C
:103770005252614172724161380000200246891E36
:103780009069801E884201D8002070479078484395
:10379000936AC018F9E70000FEB505460C4620788C
:1037A00040218843401E0D21484306460027012042
:1037B000019000BF1B48C05D001940780002194904
:1037C000C95D615C084300900198002810D0009802
:1037D00000F09AFF0190FF2E08D23146761C490076
:1037E000685A00F091FF0199884207D00020FEBD81
:1037F0000D490098884201D00020F8E7781C074660
:103800000D28D7D3207840210840002808D00198FF
:10381000002805D07000285A002801D00020E6E7D3
:103820000120E4E734500000FFFF0000F3B581B051
:1038300004460298002807D1E768002F02D0A0694B
:10384000B84210D801270EE02046029901F056F840
:103850000646022E01D20120FEBDA069B04201D968
:103860003046F9E7029F3D4600BF6D1CA069A842A3
:1038700004D80225BD4201D90020EDE729462046A3
:1038800001F03CF80646002E00D10AE0701C00282A
:1038900001D0012E01D13046DEE7BD42E5D1002046
:1038A000DAE700BF144A2946204601F01FFA0090CB
:1038B0000098002808D10298002805D02A46204602
:1038C000029901F013FA0090009800280AD1E560EF
:1038D0002069401C00280CD02069401E2061012076
:1038E000607106E00098012801D1801E00E00120EF
:1038F00005462846B0E70000FFFFFF0FF3B585B08F
:1039000006980068009002E00098401C0090009823
:1039100000782F28F8D0009800785C28F4D005981B
:10392000C069039000252E4600BF3046761C0099E2
:103930000C5C202C03DB2F2C01D05C2C00D11EE072
:10394000FF2D02D3062007B0F0BDE4B201212046CE
:1039500000F0B4FE0446002C01D10620F3E7802CD1
:1039600007DA214676A0FFF7E7FC002801D0062001
:10397000E9E728466D1C410003984452D5E700BF93
:103980000098811906980160202C01DA042000E0DB
:103990000020074609E0681E41000398445A202C85
:1039A00002D02E2C00D002E06D1E002DF3D100BFFE
:1039B000002D01D10620C6E700216A00039881523C
:1039C00005990B228869202101F036F8002600E0D5
:1039D000761C71000398405A2028F9D07100039892
:1039E000405A2E28F4D0002E01D00320074300E0D7
:1039F0006D1E002D05D0681E41000398405A2E28E8
:103A0000F6D10020029004900820019000BF3046BB
:103A1000761C41000398445A002C00D15CE0202C15
:103A200003D02E2C04D1AE4202D003200743EEE790
:103A300001990298884201D2AE4216D101980B2812
:103A400002D10320074347E0AE4201D003200743E1
:103A5000AE4200D940E02E46082002900B20019093
:103A600004988006000E0490D1E7802C0CDB002126
:103A7000204600F023FE0446002C03D02046803868
:103A800032490C5C0220074300BF002C05D02146C0
:103A90002FA0FFF751FC002803D05F240320074329
:103AA00013E0412C06DB5A2C04DC02210498084365
:103AB00004900AE0612C08DB7A2C06DC01210498D2
:103AC000084304902046203884B205988269029801
:103AD000431C029314549AE700BF0598806900784C
:103AE000E52803D10521059880690170019808280F
:103AF00003D104988006000E04900C21049808401D
:103B00000C2804D004988007800F032801D10220DC
:103B100007430220384000280DD104988007800F09
:103B2000012801D1102007430C21049808400428E3
:103B300001D10820074305988069C772002002E779
:103B4000222A3A3C3E3F7C7F0000000041500000AA
:103B50002B2C3B3D5B5D0000FEB50446002120465A
:103B600000F0DBF90746002F01D03846FEBDFF20EC
:103B70000090019000BF2169206800F067FF0746B0
:103B8000002F00D061E065692E78002E01D1042756
:103B90005BE0E87A8006800E0290E52E07D00821CF
:103BA00002980840002805D002980F2802D0FF2074
:103BB000019043E002980F2823D1E06900283DD00E
:103BC00040203040002808D0687B009040213046DB
:103BD000884306460196E0882084019886420CD1ED
:103BE000697B0098814208D12946E069FFF7D4FD3E
:103BF000002802D00198401E00E0FF20C0B20190D2
:103C00001CE00198002806D1284601F048F90099E7
:103C1000884200D119E0FF2001900020C043208499
:103C2000A069C07AC007C00F002807D10B22284620
:103C3000A16900F0DFFE002800D106E00021204647
:103C400000F006F80746002F95D000BF38468DE7F4
:103C5000F3B581B0044602980290E088401C86B219
:103C6000002E02D02069002801D10420FEBD3007BB
:103C7000000F002875D12069401C2061E0680028F1
:103C800005D120680089B0426BDC0420EEE73009E2
:103C900021688978491E0840002862D1E1682068BF
:103CA00000F02CFE0546012D01D80220DEE7681C3D
:103CB000002801D10120D9E720688069A8424AD8AC
:103CC0000298002801D10420D0E7E1682068FFF7BE
:103CD000ADFD0546002D01D10720C7E7012D01D11B
:103CE0000220C3E7681C002801D10120BEE70021A3
:103CF000206800F0ABFE002801D00120B6E7216863
:103D00000846303001225202002100F095FE29467B
:103D10002068FFF733FD2168C862002711E0012009
:103D2000216808710021206800F090FE002801D071
:103D300001209BE72068C06A401C2168C862781C8B
:103D4000C7B220688078B842E9DC2068C06AC01B2E
:103D50002168C86200BFE56029462068FFF70EFDB4
:103D60002061E680206830303107C90D401860615D
:103D700000207BE7F0B58BB00446A0690490E069B1
:103D800002900C2205A8049900F049FE00BF684685
:103D9000C07FC007C00F002827D000210498C1723F
:103DA0000020E06101270EE03B4605A9029A049835
:103DB00000F051FD2046FFF7CFFE0546002D00D054
:103DC00003E0781C87B2642FEEDB00BF642F02D1C2
:103DD00007200BB0F0BD042D01D02846F9E7684656
:103DE000C17F0498C1720298E0616846C07F0221D9
:103DF000084000280FD0002601E0701C86B2710038
:103E00000298405A0028F8D10D2130461930FCF7AD
:103E1000A5F986B200E001260021204600F07DF8D9
:103E20000546002D01D02846D3E70020074608901C
:103E300000BF2169206800F009FE0546002D00D072
:103E40001AE0606900780A900A98E52802D00A987A
:103E5000002809D1002F01D1E0880890781C80B299
:103E60000746B04201D107E0002701212046FFF7B5
:103E7000EFFE0546002DDCD000BF002D2DD1012E18
:103E80002BDD2046089900F048F80546002D24D186
:103E9000A06901F004F80390701E86B200BF21698A
:103EA000206800F0D3FD0546002D00D014E0F2B2EA
:103EB0006169E0690190039B00F042FC01202168E8
:103EC000087100212046FFF7C3FE0546002D03D1EF
:103ED000701E80B20600E2D100BF002D1BD1216907
:103EE000206800F0B3FD0546002D14D160690990EB
:103EF00020220021099800F09FFD0B22A16909985A
:103F000000F08DFDA069C17A182001400998017365
:103F100001202168087128465BE7F8B504460E4683
:103F2000E680A568012D03D020688069A84201D8E9
:103F30000220F8BD002D05D120680078032801D1AA
:103F40002068456A002D0CD1E56020680089B042E8
:103F500001DC0220EDE72068406A31094018206149
:103F600021E020688078070113E02946206800F0EE
:103F7000C5FC0546681C002801D10120D9E7022DA7
:103F800003D320688069A84201D80220D1E7F01B42
:103F900086B2BE42E9DAE56029462068FFF7EEFB0B
:103FA000310940182061206830303107C90D4018B0
:103FB00060610020BDE770B50546002D06D0012DDB
:103FC0000CD0022D0CD0032D0ED10BE0FDF70CF818
:103FD0000446002C00D170BD0120FCE70020FAE768
:103FE0000020F8E70020F6E70120F4E770B5054669
:103FF0000C461646002D26D12448FCF763FE23000C
:10400000FEF775FB0F090B20132018191A20201B2F
:104010001C1D1E1F2000002070BD1C4A916C506C9E
:10402000FCF786F830600020F6E71848806C308096
:104030000020F1E706E005E004E003E002E001E033
:1040400000E000BF20E0012D1CD12300FEF74FFB54
:104050000F090B0D0F191112131919141516171832
:1040600019000020D8E70020D6E70020D4E7002080
:10407000D2E706E005E004E003E002E001E000E052
:1040800000BF01E00420C7E70420C5E7C01D0020F1
:10409000FFB581B0064617461C46002C02D104200D
:1040A00005B0F0BD002E02D0012E1DD116E0012C6E
:1040B00009D138460299FDF7EBF80546002D00D1ED
:1040C000EEE70120ECE7224638460299FDF7A4F816
:1040D0000546002D00D1E3E70120E1E7012C01D1E5
:1040E0000020DDE70020DBE70120D9E701460029B9
:1040F00004D0012904D0022906D103E00020704732
:104100000020FCE70020FAE70120F8E7FFB581B0C6
:10411000064617461C46002C02D1042005B0F0BD0F
:10412000002E02D0012E1DD116E0012C09D13846F7
:104130000299FDF767F90546002D00D1EEE7012051
:10414000ECE7224638460299FDF7CEF80546002DE9
:1041500000D1E3E70120E1E7012C01D10020DDE7F8
:104160000020DBE70120D9E710B500240FE0232170
:104170000901002000F08EFDA100184A5050A00057
:1041800011460858002800D103E0601CC4B2012C7D
:10419000EDDB00BF89218900002000F07BFD104984
:1041A000086089218900002000F074FD0D49086035
:1041B00001214902002000F06DFD0B490860012C2F
:1041C00009D107480068002805D006480068002883
:1041D00001D0002010BD0120FCE700003C000020C1
:1041E00040000020440000205000002070B504462C
:1041F000204600F0E9F80546002D00D12060284651
:1042000070BD000010B50246012A01DB0B2010BD75
:104210009000074C2358002B01D000201870002973
:1042200001D0002008709000014C21500020EEE7E2
:1042300034000020F7B58EB00546164600202860F1
:10424000F606F60E7208520005A90FA8FFF780F8CF
:10425000074602A80B905B480C90002F04D105A8DC
:104260000F9900F0A5FA07460A9C002F02D1002CF6
:1042700000D106271C20304000285FD0002F09D035
:10428000042F03D105A8FFF775FD07460820064354
:104290000A9C0BE0E07A11210840002801D0072792
:1042A00004E004203040002800D00827002F44D12B
:1042B00008203040002840D000F094FB0190019885
:1042C000A07301980004010EE17301980002010E31
:1042D00021740198010E61740020E07220770021A2
:1042E0006177A177E177607D0002217D08430004BA
:1042F000E17E0902A27E1143084300900020A076CF
:104300000021E176207561750120059908710098FA
:10431000002812D00598C06A01900099059800F015
:1043200088FD0746002F08D10098401E0599C860F7
:104330000199059800F08AFB074612E0002F10D182
:10434000E07A10210840002801D0042709E002206B
:104350003040002805D0E07AC007C00F002800D008
:104360000727002F09D108203040002801D0202045
:1043700006430598C06AE8612C62002F1ED1AE7119
:10438000607D0002217D08430004E17E0902A27ED7
:10439000114308432861E07F0006A17F0904084318
:1043A000617F09020843217F0843E8600020A8607C
:1043B000A861059828600598C088A880384611B083
:1043C000F0BD0000181E0020F8B50446A188206842
:1043D00000F00BFE0746002F56D1A079202108409F
:1043E000002851D0A0794021084000280FD0216832
:1043F0004878012321462431A269FFF787FE00286F
:1044000001D00120F8BDA07940218843A071E16965
:10441000206800F01BFB0746002F35D1256AE87A9B
:1044200020210843E872207B2877A0890004010E30
:104430006977E0680002010EA977E068010EE9776C
:10444000207CA876208A0004010EE976206900020B
:10445000000E28752069010E697500F0C3FA064642
:10446000AE753004010EE9753002010E2976310E69
:104470006976A07920218843A07101202168087104
:10448000206800F01CFD07463846BBE7FFB587B043
:10449000044615460898039000210A980160A188F7
:1044A000206800F0A2FD06900698002802D0069829
:1044B0000BB0F0BDA07980210840002801D0022077
:1044C000F6E7A07902210840002801D10720EFE794
:1044D000E0684019E168884200D20025DDE02089CB
:1044E000C005C00D00287DD1A068400A21688978E8
:1044F000491E0840C0B20290029800282CD1A06842
:1045000000280BD120690590059800280BD10021C7
:104510002068FFF78BF90590206104E0616920684D
:10452000FFF784F905900598002800D1B8E00598B8
:10453000012805D1A07980210843A0710220B7E7A6
:104540000598401C002805D1A07980210843A0715E
:104550000120ADE705986061A0794021084000285E
:1045600014D020684078A2690123214624310190AB
:10457000FFF7CCFD002805D0A07980210843A07169
:10458000012095E7A07940218843A07161692068E6
:10459000FFF7F4F80646002E05D1A07980210843E4
:1045A000A071022084E702983618680A04900498E3
:1045B000002835D0049902984018216889788842EB
:1045C00004D9206881780298081A04900498C3B22C
:1045D00020684078324601900399FFF797FD002844
:1045E00007D000E035E0A07980210843A0710120C8
:1045F0005EE7A069811B049881420ED2A069801BEE
:10460000420203981118012252022046243000F081
:1046100006FAA07940218843A0710498470230E04F
:10462000A069B04214D0E168A068884210D2206826
:10463000407801233246214624310190FFF728FDBE
:10464000002805D0A07980210843A07101202FE720
:10465000A6612089C005C00D012149020F1AAF4291
:1046600000D92F462189CA05D20D21462431501880
:104670003A46039900F0D3F9A07940210843A0718C
:1046800000BF0398C0190390A068C019A0600A98E1
:104690000068C1190A980160ED1B002D00D01EE7CB
:1046A00000BFE168A068884201D9A068E060A079F5
:1046B00020210843A0710020FAE6000010B5024650
:1046C000802A01DA10461CE000290AD0FF2A01DD09
:1046D000002304E01346803B5B000A4CE35A184673
:1046E0000FE0002007E04300064CE35A934200D15C
:1046F00003E0431C98B28028F5DB00BF03468033FB
:10470000D8B210BDC25000000246002100E0491C92
:104710004800094B185A002803D04800185A904204
:10472000F5D14800044B185A002803D04800034B29
:10473000185A70471046FCE7C2510000A25300000F
:10474000FFB50446039E4E730F26CE7200260E73ED
:104750008E76CE76561E0D277E4335460026304691
:10476000334600BF104EB04203D02E466D1C76007B
:10477000A05B0E4FFF5CC85506120C4FFF5C7F1804
:104780007E70002800D108485E1C33460D2EE9D308
:10479000054EB04203D06E00A65B002E01D140262C
:1047A00032430A70FFBD0000FFFF000034500000DC
:1047B000F3B581B00446029800782F2803D0029800
:1047C00000785C2802D10298401C02900020A06072
:1047D00002980078202807D200212046FFF79DFB91
:1047E00006460020606134E000BF02A92046FFF7C2
:1047F00085F80646002E00D02AE02046FFF7ACF9E7
:104800000646A069C77A002E09D0042E00D01FE00A
:1048100000BF04203840002800D1052618E00420FD
:104820003840002800D013E06569E87A102108407C
:10483000002801D105260BE0687D0002297D084390
:104840000004E97E0902AA7E11430843A060CCE778
:1048500000BF3046FEBDFFB583B017461C460B2295
:104860000499039800F0DBF8052C0ADD00BF601006
:10487000E10341183A88BF1C881884B238880028A0
:10488000F5D1072500BF2046E117090F09180911C6
:104890000901611A3031C9B200910098392803DD4D
:1048A0000098C01DC0B2009029466D1E01AA009854
:1048B00050542046E117090F091809030C0C002C6D
:1048C000E1D17E2001A94855002600E0761CAE42C9
:1048D00003D20398805D2028F8D100BF082D04D2B0
:1048E00028466D1C01A9085C00E020203146761C9A
:1048F000039A5054082EF1D307B0F0BDF8B5044622
:104900000D46022D02D3A069A84201D80120F8BDAE
:104910002078012804D0022832D003285ED142E05A
:104920002F467808C7197A0A206A8118204600F0B5
:104930008DF8002800D051E0F905C90D204630302F
:10494000405C00907F1C7A0A206A8118204600F0A3
:104950007DF8002800D041E0F905C90D204630302F
:10496000405C0002009908430090E807C00F00284F
:1049700002D000980009CAE700980005000DC6E7BC
:104980002A0A206A8118204600F060F8002800D02A
:1049900024E02806C10D204630300E187078000241
:1049A00031780843B3E7EA09206A8118204600F00D
:1049B0004DF8002800D011E06806C10D20463030C7
:1049C0000E18F0780006B1780904084371780902DE
:1049D0000843317808430001000998E700BF002030
:1049E000C04394E700207047FDF7D0FB01E0FBF7E0
:1049F0006DFFFCE7F8B503461C460D46002000900D
:104A000000BF1046521E002807D02078641C2E7864
:104A10006D1C801B00900028F3D00098F8BD70B585
:104A200003460C4603E025781D70641C5B1C15468C
:104A3000521E002DF7D170BD30B5034601E019704C
:104A40005B1C1446521E002CF9D130BDF8B504464B
:104A50000D46E66AAE4232D02079002821D0607837
:104A60000123324621463031FFF750FB002801D0A8
:104A70000120F8BD00202071E169206A4018B04291
:104A80000FD9E7780AE0E069861960780123324699
:104A900021463031FFF73AFB781EC7B2012FF2DC16
:104AA00000BF002D0BD0607801232A46214630310B
:104AB000FFF7EEFA002801D00120DAE7E5620020D6
:104AC000D7E70000F8B504460E461848005D0028F8
:104AD00006D1164818380168204688470120F8BDDD
:104AE000A00013490858B0421DD9A000114A11581E
:104AF0003046FBF71DFB0746A1000C48083840581C
:104B00007900405A0090002508E00021A2000748E3
:104B1000083880587A19520081526D1C00988542DD
:104B2000F3DB0020DBE70220D9E7000028000020AB
:104B30002C5000002450000010B50446A1000C4B7E
:104B400059584A00A3000B49C858002100F0B6F894
:104B5000A100094B5A58A30006490839C85800213A
:104B600000F0ACF8012103480830015510BD0000E9
:104B70001C500000200000202C500000F3B581B034
:104B800004460025002000902548005D002804D13F
:104B9000234818380168204688470298002801D128
:104BA000401EFEBDA0001F4A11580298FBF7C0FA34
:104BB0000646A0001B4A11580298FBF7B9FA0029D3
:104BC00000D0761CA00018490858451E22E0A1001C
:104BD0001348083840586900405A002803D100980B
:104BE000401C009001E0002000900098B04210D1DD
:104BF000002707E0A2000A4808388058EA19520046
:104C000086527F1CB742F5D3A00006490858684376
:104C1000C7E76D1E002DDADA0020C043C1E70000AF
:104C200028000020245000001C50000070B50446ED
:104C30000026002508E0A1000B4840586900405AB2
:104C4000002800D0761C6D1CA00008490858A84216
:104C5000F1D8A2000B469958642272431046FBF724
:104C600067FAC0B270BD0000200000201C50000098
:104C700070B505460C46002C00D170BDA900044853
:104C80004058261A31462846FFF71CFF00BFF4E7BC
:104C90001800002070B504460E4631462046FFF746
:104CA0006DFF0546681C002800D170BDA1000248B8
:104CB00040584019F9E700001800002030B50346BD
:104CC00001E019705B1C1446521E002CF9D130BD56
:104CD00010B5044621460020FFF7DCFF10BD10B5DB
:104CE000044621460020FFF7C3FF10BDFEB5054670
:104CF0000E461746022E02D3A869B04202D80220FF
:104D0000009094E02878012804D002284BD0032892
:104D10007ED15DE00196019E7008801901902A6A9B
:104D20000198400A11182846FFF790FE009000985D
:104D3000002800D078E00198C105C90D2846303020
:104D40000C18F007C00F002805D020780007000FCE
:104D50003901084300E0384620700198401C01905A
:104D6000012028712A6A0198400A11182846FFF785
:104D70006DFE00900098002800D055E00198C10514
:104D8000C90D284630300C18F007C00F002802D09B
:104D90003805000E05E02078F02108403905090F9C
:104DA0000843207040E0320A286A81182846FFF73D
:104DB0004DFE00900098002800D035E03006C10D6F
:104DC000284630300C1827703804000E60702BE035
:104DD000F209286A81182846FFF738FE00900098EB
:104DE000002800D020E07006C10D284630300C1895
:104DF000E0780006A17809040843617809020843B5
:104E000021780843000F000707432770380400E0AB
:104E100007E0000E60703802000EA070380EE070DF
:104E200002E00220009000BF00BF0120287100981E
:104E3000FEBDF8B504460E46022E02D3A069B0426C
:104E400001D8022729E0002723E031462046FFF75A
:104E500055FD0546002D00D11EE0012D01D1022790
:104E60001AE0681C002801D1012715E00022314614
:104E70002046FFF73BFF0746002F00D00CE02069DB
:104E8000401C002804D02069401C20610120607172
:104E90002E46A069B042D8D800BF3846F8BD30B51C
:104EA000014600200B2200BF4310C4011C190D78DD
:104EB000491C6319D8B2531E1A00F5D130BD70B524
:104EC000044600212046FFF7C1FD0546002D7ED196
:104ED000207803287FD1607900287CD00020E06210
:104EE00001225202002120463030FFF7A5FD552156
:104EF00020463030FF30E1308177AA212046303023
:104F0000FF30FF30417052213020015531200155D2
:104F10006121322001554121332001557221204663
:104F20003030FF30E130017120463030FF30E53065
:104F30004170412120463030FF30E53081706121E1
:104F400020463030FF30E530C170217C20463030C3
:104F5000FF30E1300172208A0004010E204630301B
:104F6000FF30E930417020690002010E20463030E8
:104F7000FF30E93081702069010E20463030FF306B
:104F8000E930C170217B20463030FF30E1300173C1
:104F9000A0890004010E20463030FF30ED30417012
:104FA000E0680002010E20463030FF30ED308170A5
:104FB000E068010E20463030FF30ED30C17060787F
:104FC0000123214630316269FFF7A0F801E00AE0D1
:104FD00001E000206071607800221146FFF706F8BA
:104FE000002800D00125284670BD70B504460D4646
:104FF000002C05D02078002802D0E088A84201D0FB
:10500000092070BD6078FFF771F8C007C00F002855
:1050100001D00320F5E70020F3E70000A000000026
:1050200000780000200000002000000000140000B4
:1050300000000F0001030507090E10121416181CBA
:105040001E809A90418E418F804545454949498E41
:105050008F9092924F994F555559999A9B9C9D9E2E
:105060009F41494F55A5A5A6A7A8A9AAABAC21AEBB
:10507000AFB0B1B2B3B4B5B6B7B8B9BABBBCBDBEC8
:10508000BFC0C1C2C3C4C5C6C7C8C9CACBCCCDCEB8
:10509000CFD0D1D2D3D4D5D6D7D8D9DADBDCDDDEA8
:1050A000DFE0E1E2E3E4E5E6E7E8E9EAEBECEDEE98
:1050B000EFF0F1F2F3F4F5F6F7F8F9FAFBFCFDFE88
:1050C000FF00C700FC00E900E200E400E000E500AA
:1050D000E700EA00EB00E800EF00EE00EC00C4009F
:1050E000C500C900E600C600F400F600F200FB00AF
:1050F000F900FF00D600DC00A200A300A500A72055
:105100009201E100ED00F300FA00F100D100AA00E5
:10511000BA00BF001023AC00BD00BC00A100AB0072
:10512000BB00912592259325022524256125622522
:10513000562555256325512557255D255C255B257D
:105140001025142534252C251C2500253C255E25FD
:105150005F255A25542569256625602550256C252F
:105160006725682564256525592558255225532529
:105170006B256A2518250C25882584258C259025E6
:105180008025B103DF009303C003A303C303B5006D
:10519000C403A6039803A903B4031E22C603B503E0
:1051A00029226122B1006522642220232123F700F5
:1051B0004822B0001922B7001A227F20B200A02591
:1051C000A000610062006300640065006600670083
:1051D000680069006A006B006C006D006E006F0073
:1051E0007000710072007300740075007600770023
:1051F000780079007A00A100A200A300A500AC000D
:10520000AF00E000E100E200E300E400E500E600BA
:10521000E700E800E900EA00EB00EC00ED00EE003A
:10522000EF00F000F100F200F300F400F500F600EA
:10523000F800F900FA00FB00FC00FD00FE00FF0092
:10524000010103010501070109010B010D010F0116
:10525000110113011501170119011B011D011F0186
:10526000210123012501270129012B012D012F01F6
:1052700031013301350137013A013C013E01400162
:1052800042014401460148014B014D014F015101CA
:1052900053015501570159015B015D015F01610136
:1052A00063016501670169016B016D016F017101A6
:1052B0007301750177017A017C017E019201B103CE
:1052C000B203B303B403B503B603B703B803B9031A
:1052D000BA03BB03BC03BD03BE03BF03C003C103CA
:1052E000C303C403C503C603C703C803C903CA0372
:1052F00030043104320433043404350436043704F2
:10530000380439043A043B043C043D043E043F04A1
:105310004004410442044304440445044604470451
:10532000480449044A044B044C044D044E044F0401
:1053300051045204530454045504560457045804A9
:1053400059045A045B045C045E045F0470217121FB
:105350007221732174217521762177217821792199
:105360007A217B217C217D217E217F2141FF42FF0B
:1053700043FF44FF45FF46FF47FF48FF49FF4AFF01
:105380004BFF4CFF4DFF4EFF4FFF50FF51FF52FFB1
:1053900053FF54FF55FF56FF57FF58FF59FF5AFF61
:1053A0000000410042004300440045004600470021
:1053B000480049004A004B004C004D004E004F0091
:1053C0005000510052005300540055005600570041
:1053D000580059005A002100E0FFE1FFE5FFE2FF1D
:1053E000E3FFC000C100C200C300C400C500C60086
:1053F000C700C800C900CA00CB00CC00CD00CE0059
:10540000CF00D000D100D200D300D400D500D60008
:10541000D800D900DA00DB00DC00DD00DE00780116
:10542000000102010401060108010A010C010E013C
:10543000100112011401160118011A011C011E01AC
:10544000200122012401260128012A012C012E011C
:10545000300132013401360139013B013D013F0188
:1054600041014301450147014A014C014E015001F0
:1054700052015401560158015A015C015E0160015C
:1054800062016401660168016A016C016E017001CC
:1054900072017401760179017B017D019101910313
:1054A0009203930394039503960397039803990338
:1054B0009A039B039C039D039E039F03A003A103E8
:1054C000A303A403A503A603A703A803A903AA0390
:1054D0001004110412041304140415041604170410
:1054E000180419041A041B041C041D041E041F04C0
:1054F0002004210422042304240425042604270470
:10550000280429042A042B042C042D042E042F041F
:105510000104020403040404050406040704080447
:1055200009040A040B040C040E040F046021612119
:105530006221632164216521662167216821692137
:105540006A216B216C216D216E216F2121FF22FFC9
:1055500023FF24FF25FF26FF27FF28FF29FF2AFF1F
:105560002BFF2CFF2DFF2EFF2FFF30FF31FF32FFCF
:1055700033FF34FF35FF36FF37FF38FF39FF3AFF7F
:10558000000011001206173F185019031A78320054
:1055900029502C78427F4D0963E064FF6500660066
:1055A000670013F00D810FC51411227F23032440DF
:1055B000253026A12B9E6BAA13FF90089101920320
:1055C000930094B0959D96139716987B99919A1E87
:1055D0009B089C209E81A606A765A865A980AA8035
:1055E0007E0C7F16802A814E8261836F847B858644
:1055F000868E879788A489AF8AC58BD78CE88D2043
:105600000C500EF500000B4000200B4000400B40FA
:1056100000600B40000000000000000002020200D9
:10562000004000800200010101010303001002009C
:1056300004000101010C0102000004400000100000
:10564000060000002000060041542B434D47533D07
:1056500022313330353537363730353622000000C9
:105660008056000000000020640000000A270000AF
:10567000E456000064000020DC2400001A2700002B
:10568000000000000000000001000000006CDC02CF
:10569000394B00002D4C00008008002000000068FD
:1056A000801C002000000F680000000000000000C7
:1056B00000000000000000000000000000000000EA
:1056C00000000000000000000000000000000000DA
:1056D000000000000000000000000000485600002C
:0456E00000000000C6
:04000005000000C136
:00000001FF
